S01800006275696C642F6D6963617A2F6D61696E2E73726563E5
S11300000C9449000C944E040C9458040C9462040F
S11300100C946C040C9476040C9480040C942506C3
S11300200C948A040C9468000C9468000C94F411E9
S11300300C94080A0C9418040C942E040C94940444
S11300400C9407040C94260C0C9468000C9468001F
S11300500C9468000C9468000C9468000C9468007C
S11300600C9423040C9468000C9468000C946800AD
S11300700C9468000C9468000C9468000C9468005C
S11300800C9468000C9468000C94680000081C1818
S1130090141011241FBECFEFD0E1DEBFCDBF11E09D
S11300A0A0E0B1E0E0E9FBE200E00BBF02C0079092
S11300B00D92AA30B107D9F712E0AAE0B1E001C06D
S11300C01D92A932B107E1F70E9487100C94C7155D
S11300D00C9400008FB7F894992708958FBF089562
S11300E0282F9FB7F894662349F0E82FFF27E65B93
S11300F0FE4F8081882311F021E006C0E22FFF2704
S1130100E65BFE4F608320E0892F99278FBF822F03
S113011099270895E82F8FB7F894282F332790E074
S1130120FF27E65BFE4F8081861709F491E02FBF1D
S1130130892F99270895882311F06E9A08956E984F
S11301400895882311F06F9A08956F98089580E0B8
S11301500E949B00BA9ABB98B99A6C9A80E00E945C
S1130160A100709A6B986A98689881E00E949B003D
S113017008950F931F93CF93DF93182F8FB7F8949D
S1130180C82FDD270C2F61E080E00E9470008823D7
S113019021F0CFBF85E090E024C080910501882341
S11301A0A1F480910F01823081F409C082E0809330
S11301B00F01109205010E94A700B89AC0981093ED
S11301C0020180E00FBF99270CC080910F018823A2
S11301D069F38FB7F894992710924A018FBF81E091
S11301E0F1CFDF91CF911F910F910895282F9FB7E1
S11301F0F894E82FFF27EB50FE4F80818F3F81F466
S1130200E0910502E21771F40BC02093F20104C0DF
S1130210FF27EB50FE4F20832093050220E007C008
S113022025E005C08091F2018F3F91F7EECF892F31
S113023099278FBF822F992708951F93182F81E044
S11302400E949B001FB9779BFECF8FB199271F9106
S113025008958F929F92AF92BF92CF92DF92EF92C6
S1130260FF920F931F93CF93DF938FB7F89499273F
S1130270C0905001D0905101809030019090310194
S1130280C0913601D091370120919C0130919D019C
S11302909AE0A92EB12CAC0EBD1E2A153B0508F41C
S11302A059018FBF7401EC0EFD1E86010C0F1D1F3A
S11302B014C0C114D10419F0F801808101C080E098
S11302C00E941D018114910411F0F701808321968D
S11302D00894E11CF11C0F5F1F4FC5010197C8175B
S11302E0D90738F381E00E94A1009FB7F894C114A4
S11302F0D10431F0CC0EDD1EF60180818FB901C02E
S11303001FB8D0933701C0933601892F99278FBF27
S113031080E090E0DF91CF911F910F91FF90EF90DB
S1130320DF90CF90BF90AF909F908F9008952FB79C
S1130330F894332750939D0140939C01909351016D
S11303408093500170933101609330011092370112
S1130350109236012FBF452B29F08FB10E9429013D
S11303609927089587E00E94F60080E090E00895C0
S11303708FB7F894992710924C018FBF08957FB7D7
S1130380F89462B7209198013091990140919A01B3
S113039050919B0106B601FE0FC081B792B7280F9A
S11303A0311D411D511D2F5F3F4F4F4F5F4F290F8F
S11303B0311D411D511D04C0260F311D411D511D0C
S11303C0872F99278FBFCA01B9010895DF92EF9251
S11303D0FF920F931F938FB7F894282F3327D22EB1
S11303E091B782B746B7981711F041FF02C02FBFEB
S11303F068C080919E018823D1F10E94BF01E090E2
S11304009101F09092010091930110919401209137
S1130410D3013091D4014091D5015091D6016E1988
S11304207F09800B910B621773078407950728F0E7
S113043010929E0186EE71E01CC02E0D3F1D401FE0
S1130440511F8091980190919901A0919A01B091C6
S11304509B01281B390B4A0B5B0B273E31054105D9
S1130460510528F4822F223018F482E001C086EE70
S113047070E0682F615000B601FCFDCF82B76817A9
S113048009F46F5F209198013091990140919A018C
S113049050919B01DA01C9010196A11DB11D860F7E
S11304A0911DA11DB11D82179307A407B50710F470
S11304B0622F609561BFDFBE772319F08AE00E9446
S11304C0F6001F910F91FF90EF90DF900895AFB762
S11304D0F894BB27E1E0E0939E016093910170934F
S11304E0920180939301909394012093D3013093CC
S11304F0D4014093D5015093D601AFBF0E94E601C9
S1130500089580E8809332011092350110928B0196
S113051010929601109207020895CF93DF93FC0185
S113052015A6DC019E96ED011B821A82198280E8D1
S113053086A7DF91CF9108952F923F924F925F92B9
S11305406F927F928F929F92AF92BF92CF92DF92DF
S1130550EF92FF920F931F93CF93DF93CDB7DEB744
S113056028970FB6F894DEBF0FBECDBF20903C0194
S113057030903D0140903E0150903F016624772425
S113058088244EE4A42E33E8B32ECC24DD24EE24B8
S1130590FF2400E010E0222D332D442D552D662D2F
S11305A0772D882D90E00E94B61329833A834B83DC
S11305B05C836D837E838F839887822E932EA42EF3
S11305C0B52E2401350100E20E94B414A22EB32EEC
S11305D0C42ED52EC301B20196958795779567955C
S11305E06A0D7B1D8C1D9D1D97FF05C09F776F5F56
S11305F07F4F8F4F9F4F60933C0170933D018093D9
S11306003E0190933F0128960FB6F894DEBF0FBECB
S1130610CDBFDF91CF911F910F91FF90EF90DF90AD
S1130620CF90BF90AF909F908F907F906F905F908E
S11306304F903F902F9008958FB7F89460913301B5
S1130640709134012CB53DB506B602FE04C06F5F4F
S11306507F4F2CB53DB599278FBF88279927CB01AC
S11306607727662744275527622B732B842B952BDA
S11306700895EF92FF920F931F930E941C037B0136
S11306808C012091410130914201409143015091EC
S113069044018091EA019091EB01A091EC01B091A9
S11306A0ED01820F931FA41FB51FE216F306040782
S11306B0150730F082179307A407B50758F005C053
S11306C082179307A407B507E0F5E816F9060A07A9
S11306D01B07B8F59C01AD012E193F09400B510BC6
S11306E0213060E8360760E0460760E0560768F1AD
S11306F080E090E8A0E0B0E0E80EF91E0A1F1B1F9E
S1130700E0924101F09242010093430110934401AD
S113071080E090E8AFEFBFEFE80EF91E0A1F1B1F41
S113072020503048404050402093EA013093EB0180
S11307304093EC015093ED0120E030E840E050E0BC
S113074014C020E030E040E050E0809341019093F9
S11307504201A0934301B09344011092EA01109224
S1130760EB011092EC011092ED01A901B7012CB537
S11307703DB5C9018E199F0903968417950720F08A
S1130780B9016D5F7F4F02C0640F751F611571055C
S113079011F461E070E0615070407BBD6ABD80E19E
S11307A086BF87B7806187BF1F910F91FF90EF903D
S11307B008950F931F930FB7F89411276093410185
S11307C07093420180934301909344012093EA0182
S11307D03093EB014093EC015093ED010E943903F7
S11307E00FBF1F910F91089597B79F7D97BF90E218
S11307F096BF882319F08EB5806402C08EB58F7BB6
S11308008EBD87B7806287BF80E090E008951F9215
S11308100F920FB60F9211248F9383B783BF00B644
S113082000FCFDCF8F910F900FBE0F901F90189575
S113083078941F920F920FB60F9211240F900FBE4F
S11308400F901F90189578941F920F920FB60F92E5
S113085011240F900FBE0F901F90189578941F923B
S11308600F920FB60F9211242F933F938F939F9360
S11308702FB7F89433278091330190913401019676
S113088090933401809333012FBF9F918F913F91B7
S11308902F910F900FBE0F901F9018951F920F92DB
S11308A00FB60F9211240F900FBE0F901F90189542
S11308B01F920F920FB60F9211240F900FBE0F903C
S11308C01F9018951F920F920FB60F9211240F903C
S11308D00FBE0F901F9018951F920F920FB60F9294
S11308E011240F900FBE0F901F9018951F920F9216
S11308F00FB60F9211240F900FBE0F901F901895F2
S11309001F920F920FB60F9211240F900FBE0F90EB
S11309101F9018951F920F920FB60F9211240F90EB
S11309200FBE0F901F9018951F920F920FB60F9243
S113093011242F933F934F935F936F937F938F93E0
S11309409F93AF93BF93EF93FF9383B783BF00B697
S113095000FCFDCF81B799270196AA27BB272091D8
S113096098013091990140919A0150919B01280F6F
S1130970391F4A1F5B1F20939801309399014093BC
S11309809A0150939B0178940E94E601FF91EF91A4
S1130990BF91AF919F918F917F916F915F914F9193
S11309A03F912F910F900FBE0F901F9018950F93AA
S11309B01F93182F0FB7F89461E080E00E94700035
S11309C0882371F510930201809105018823A9F50C
S11309D080910F01823089F586E00CC00E94A70047
S11309E080910F01882349F481E080930F011092D4
S11309F0970188E00E94F6002AC0809108028F3F88
S1130A0031F5E0910401EE2311F11CC010920301B1
S1130A1004C0FF27E85FFD4F10821092040117C045
S1130A2081E090E002C0880F991F1A95E2F72091A7
S1130A300E01282B20930E010AC080910F018823F8
S1130A40E1F6CCCF809103018F3F19F7DFCF802FE0
S1130A5099278FBF80E090E01F910F9108951F9315
S1130A6083E00E94B9009927182F882319F083E0A6
S1130A700E94D704812F99271F910895CF92DF9266
S1130A80EF92FF920F931F93CF93DF938C01F62E77
S1130A906A01E22E8FB7F894C82FDD2760E080E06A
S1130AA00E948A00882321F0CFBF80E090E01EC01E
S1130AB0CFBF0F0D111D802F80680E941D01F82EDD
S1130AC016950795802F807C0E941D010E2D0AC06B
S1130AD0EE2DFF27E01BF109EC0DFD1D80810E9426
S1130AE01D0101500023A1F78F2D9927DF91CF918C
S1130AF01F910F91FF90EF90DF90CF900895CF93C7
S1130B00DF93CDB7DEB724970FB6F894DEBF0FBEE0
S1130B10CDBF8FB7F8949927209155013091560194
S1130B202983232F33272A832091F3013091F40161
S1130B302B83232F33272C838FBF24E0AE014F5FF9
S1130B405F4F60E088E691E00E943E0524960FB670
S1130B50F894DEBF0FBECDBFDF91CF9108951F93F0
S1130B60CF93DF93182F8FB7F894C82FDD2760E059
S1130B7080E00E948A00882321F0CFBF80E090E0CB
S1130B8005C0CFBF812F0E941D019927DF91CF910E
S1130B901F910895EF92FF920F931F93CF93DF93CA
S1130BA0182F7B01042F8FB7F894C82FDD2760E03E
S1130BB080E00E948A00882321F0CFBF80E090E08B
S1130BC014C0CFBF1064812F992790938E01809316
S1130BD08D010E941D01182F402F5527B70180E079
S1130BE090E00E949701812F9927DF91CF911F9167
S1130BF00F91FF90EF900895C09860911501709146
S1130C00160141E08FE30E94CA05089582E090E056
S1130C1090933B0180933A0181E08093350120E079
S1130C2030E080910201843011F421E030E0232B84
S1130C3029F484E00E94B900882319F40E94FC0579
S1130C40089584E00E94D70408951F920F920FB66E
S1130C500F9211242F933F934F935F936F937F933E
S1130C608F939F93AF93BF93EF93FF9380913A0138
S1130C7090913B01019719F40E94060605C08091EA
S1130C8007028F5F80930702FF91EF91BF91AF91AD
S1130C909F918F917F916F915F914F913F912F9190
S1130CA00F900FBE0F901F9018951F9380910E0107
S1130CB0882309F046C0109102011F3F09F041C08A
S1130CC060E00E948A008823E1F181E080932C0196
S1130CD0809114018823C1F110922C0185E090E0E9
S1130CE041C0923049F5C09A8091030190E08F3F52
S1130CF009F491E09923D9F48F3F19F42FEF30E0F0
S1130D000DC0282F3327F901E85FFD4F80818093C0
S1130D1003018F3F11F48093040110832093970102
S1130D2081E080930F0188E00E94F60005C01093D3
S1130D30050110920F0111C080910F01882369F001
S1130D400FC081E090E00EC08091050190910F01E9
S1130D50882339F2923021F0EFCF80E00E949B008B
S1130D6080E090E01F9108951F93CF93DF939FB786
S1130D70F894C92FDD271C2F90910201981721F0B8
S1130D80CFBF81E090E03AC08FEF809302013091B1
S1130D900E013323F1F48FB7F894992710924A0186
S1130DA08FBF0E945506CFBF11C02093020181E07E
S1130DB090E002C0880F991F4A95E2F78095382386
S1130DC030930E0186E00E94F6001FBF80E090E0A1
S1130DD015C080E065E0E32FFF270E943E15292F10
S1130DE0492F5527CF01042E02C0959587950A9463
S1130DF0E2F780FDDACF822F8F5FEFCFDF91CF91C3
S1130E001F9108951F93CF93DF938FB7F894C82F42
S1130E10DD271C2F80913A0190913B01892B29F405
S1130E2084E00E94B406CFBF1EC0109235018091A9
S1130E300702882311F0B79904C00E9908C08823CB
S1130E4019F08150809307020E9406060BC081E0CE
S1130E5090E090933B0180933A011092070284E062
S1130E600E94B4061FBFDF91CF911F9108950E9485
S1130E708102C09AC09888E00E94AF0588E00E9471
S1130E80AF05C09A84E00E94B4060E940207089548
S1130E90FF920F931F93CF93DF93F82E8B018FB79D
S1130EA0F894C82FDD2760E080E00E948A00882340
S1130EB021F0CFBF80E090E00CC0CFBF8F2D0E9407
S1130EC01D01812F99270E941D01802F0E941D0161
S1130ED09927DF91CF911F910F91FF9008951F9350
S1130EE01FB7F89480913901882319F460E070E009
S1130EF009C060E08091EE01882309F461E081E09B
S1130F006827772780914001882319F480E090E0D6
S1130F100AC090E080914901882309F491E081E0BE
S1130F209827892F9927762F6627770F770F770FC2
S1130F30A4E0880F991FAA95E1F7826E9262682B4C
S1130F40792B81E10E944807812F99278FBF1F9138
S1130F5008958FB7F89499276091E9018FBF85E0D0
S1130F60689FB0011124625D7E4F706488E10E9425
S1130F7048070895EF92FF921F93CF93DF93E09079
S1130F804701F0904801F70182A59927182F88237B
S1130F9009F41FE1C0988091F001811749F0612F95
S1130FA077276F717070606E706885E10E944807E2
S1130FB01093F001F70110818FB7F894C82FDD2743
S1130FC060E080E00E948A00882311F0CFBF12C045
S1130FD0CFBF8EE390E090938E0180938D018EE3DA
S1130FE00E941D011150412F552760E070E0C70198
S1130FF00E949701DF91CF911F91FF90EF90089588
S1131000FF920F931F93CF93DF93EA01F22E8B8706
S11310106E83672F77276F832FB7F89433278091D8
S11310205501909156012FBF8C83892F99278D8369
S11310302FB7F894332780910601909107012FBFB1
S11310408887892F9927898761E082E00E94700050
S1131050882319F085E090E06CC0809117018F5FC0
S11310608093170181508B838FE38A878FB7F8941D
S1131070082F112762E081E00E948A00882329F466
S11310800FBF0E94B80181E053C08FB7F89499272D
S113109024E020934B018FBFD0930402C09303023A
S11310A00FBF8DE0F80EFE01F192898199278072BD
S11310B090708983118289819927816498688983D2
S11310C0892F992781831CA618A619A61DA619AADB
S11310D018AA1FA680E88EA761E06093EF014091F3
S11310E00302509104028FB7F894282F332780917C
S11310F01001909111018830910511F0019711F0C0
S11311002FBF15C082E090E09093110180931001ED
S113111060934E01509348014093470110928C0113
S11311202FBF0E942F05882311F40E94BA0780E084
S11311309927DF91CF911F910F91FF900895AF925E
S1131140BF92CF92DF92EF92FF920F931F935B01B6
S11311506C016091200161FF1FC020911801309142
S1131160190140911A0150911B01E0901C01F0906B
S11311701D0100911E0110911F01D601C501821BA2
S1131180930BA40BB50B8E159F05A007B10720F098
S1131190E8E1F1E0DD2422C0E1E2F1E0609129011F
S11311A061FF60C02091210130912201409123010F
S11311B050912401E0902501F0902601009127012F
S11311C010912801A21AB30AC40AD50AAE14BF04A6
S11311D0C006D10608F446C071E0D72E60FF04C0F3
S11311E080858D7F808708C02E0D3F1D401F511FB5
S11311F0208331834283538381E0D81699F52FB736
S1131200F89433278BB392E089278BBB2FBF47E534
S113121051E081E180935D0110925E018AE0809348
S1131220620180912E0190912F01892BD9F4509362
S11312302F0140932E018FE0809357018091090183
S1131240882381F01092090122E061E170E08AE0D4
S11312500E940008882331F0D092090110922F01D6
S113126010922E018BE00E94F6001F910F91FF90C7
S1131270EF90DF90CF90BF90AF900895E82FFF27B5
S1131280EE0FFF1FE25DFE4F1182108210920901E2
S1131290E0912E01F0912F01309721F08091F1011E
S11312A080FF08C081E08093090108958DE00E94C9
S11312B0F600089520812D50332767817727762FF4
S11312C0662786819927682B792BAF0183850E9435
S11312D00008882359F708951F93182F81E090E0A0
S11312E09093110180931001109214010E945506ED
S11312F08FB7F894992710930A018FBF82E00E9458
S1131300F6001F910895CF92DF92EF92FF920F9310
S11313101F93CFB6F894DD240E949C02DC01CB011C
S113132066E470E00E944A151BE0E12EF12CE80E01
S1131330F91EF0925301E09252010E941C0300270F
S11313401127A80197010E94D903CFBE1F910F91C5
S1131350FF90EF90DF90CF9008951F93CF93DF938A
S11313608FB7F894C82FDD271C2F8091100190911E
S113137011010897C9F489E00E94AF0583E00E9437
S1131380B406C09A81E090E090931101809310011B
S11313908FB7F894992723E020930A018FBF82E046
S11313A00E94F600CFBF30C0C09880914E018823C0
S11313B011F085E001C084E00E94AF0583FD09C0FF
S11313C080E00E94AF0583FF04C085E090E020E048
S11313D003C083E090E021E0909311018093100119
S11313E0C09A1FBF222341F010928C0183E00E9417
S11313F0B4060E94830908C00E941C0320E431E063
S113140040E050E00E94D903DF91CF911F910895ED
S113141078941F920F920FB60F9211241F932F935B
S11314203F934F935F936F937F938F939F93AF9368
S1131430BF93EF93FF9387B78F7E87BF78941FB7CF
S1131440F8948091EA019091EB01A091EC01B091A4
S1131450ED010097A105B10509F051C0809110017B
S1131460909111018530910561F18630910530F438
S11314708330910549F0049781F51AC087309105AE
S1131480F1F0089751F514C0869B0FC084E090E0FA
S113149090931101809310010E941C0327E030E017
S11314A040E050E00E94D90318C00E94830915C08F
S11314B00E942F05882389F40E94AD090EC080E0A4
S11314C00AC089E00E94AF0581E00E94F40383E032
S11314D00E94B40687E00E946C0980910B019091F0
S11314E00C01019771F482E090E090930C018093D9
S11314F00B01DE98DE9A80E00E94D70402C00E94AD
S11315003903812F99278FBFFF91EF91BF91AF913D
S11315109F918F917F916F915F914F913F912F9107
S11315201F910F900FBE0F901F901895EF92FF928E
S11315300F931F93CF93DF938B0180918D01909133
S11315408E0186FF2AC18F7B8F3309F078C1C09149
S11315501501D0911601588150932D0180913A01C3
S113156090913B018330910509F443C08430910587
S113157009F48AC0029709F009C183E090E09093CE
S11315803B0180933A0140913201852F99270196BE
S1131590242F3327281739074CF1B79906C00E9921
S11315A004C0451B41504093320140912D014A3201
S11315B0E8F44423A1F0BE016F5F7F4F483018F078
S11315C047E050E007C084E090E090933B018093B3
S11315D03A01552780E090E00E94970130C11092B3
S11315E03501C09A84E00E94B406CDC00E9437073A
S11315F026C184E090E090933B0180933A0180916E
S11316004001882309F439C0809149018823A9F550
S1131610898185FF32C08F814E812FB7F89433279B
S11316206091F3017091F4012FBF9927982F8827B7
S11316305527842B952B8617970759F08F812E8178
S11316409927982F88273327822B932B8F5F9F4FBF
S1131650A1F489818770813081F4C09AC0988AE0AE
S11316600E94AF05C09AC09840912D01475028961A
S1131670BE018FE30E94CA05E2C040912D0147508C
S113168055272896BE01A6CFC09A809107028823C9
S113169019F484E00E94B406809196018823A1F194
S11316A080912D018B30B0F1E0918B01FF27EE0F7B
S11316B0FF1FEE0FFF1FE75FFD4F20813181428145
S11316C05381E0911501F091160121ABBB27A52FA1
S11316D0942F832F80ABCA01AA27BB2787A7252F66
S11316E033274427552726A780918B0199270196F4
S11316F068E070E00E945E1580938B0180919601F2
S113170081508093960106C0809115019091160135
S11317100E948D0280912D01FE01E80FF11D808150
S113172087FF31C0012B79F169816770E091150160
S1131730F0911601623019F5A0914701B09148016A
S1131740109709F180911001909111010797D9F434
S1131750ED019B8183819817B1F487B78F7E87BF92
S1131760908181E08CA7E90FF11D8291319688A7C1
S113177080818F7789A780E00E946C0904C0613062
S113178011F489E02AC00E94020759C01092350161
S1131790C09A84E00E94B40652C08E3309F04FC050
S11317A0C09A80911001909111010897C9F4C098D2
S11317B089E00E94AF05C09A83E00E94B40681E0EC
S11317C090E090931101809310018FB7F8949927BA
S11317D023E020930A018FBF82E00E94F6002FC00D
S11317E080914E01882349F484E090E090931101A4
S11317F0809310010E94AD0922C083E00E94B406C8
S113180083E090E090931101809310010E949C0268
S1131810DC01CB0166E371E00E944A150BE0E02E87
S1131820F12CE80EF91EF0924601E09245010E9467
S11318301C0300271127A80197010E94D903DF91F7
S1131840CF911F910F91FF90EF9008951F920F92E7
S11318500FB60F9211242F933F934F935F936F937F
S11318607F938F939F93AF93BF93EF93FF932FB186
S1131870E0913001F0913101309739F080913601D7
S113188090913701E80FF91F2083809136019091E0
S113189037010196909337018093360180E00E94CE
S11318A0A10040919C0150919D018091360190913D
S11318B037018417950718F40E9429011CC0609110
S11318C03001709131018091500190915101109239
S11318D03101109230011092510110925001109276
S11318E09D0110929C0110923701109236012FB184
S11318F020E00E94960AFF91EF91BF91AF919F91D2
S11319008F917F916F915F914F913F912F910F90A4
S11319100FBE0F901F901895AF92BF92CF92DF9297
S1131920EF92FF920F931F93CF93DF93182F86307C
S113193009F44DC1873090F4823009F499C08330A2
S113194030F4882331F1813009F0B9C38BC084307D
S113195009F4FBC0853008F0FFC0DCC08A3009F40C
S1131960D5C28B3038F4883009F40AC2893008F0C3
S11319701BC2E3C18C3039F08C3008F4FAC28D30CC
S113198009F09DC38FC38091F101882309F074C3CA
S113199096C30FB7F894112781E00E94F403E1E0A5
S11319A0EE2EF12CF0921101E0921001109212012E
S11319B0109214011092F0010FBF0FB7F894112781
S11319C00E948102F0923B01E0923A0110923501AB
S11319D089B78F7B89BF80E488BF8AB780628ABF5A
S11319E08AB78F7E8ABF89B7806489BF0FBF8FB7DC
S11319F0F894082F112780910B0190910C01049702
S1131A0019F483E00E94AF050FBF0FB7F8941127B4
S1131A10C09A80E00E94B4060FBF8FB7F89499274C
S1131A2022E020934B018FBF0E94BF0160932101EC
S1131A307093220180932301909324018AEF90E014
S1131A40A0E0B0E08093250190932601A0932701A4
S1131A50B0932801809129018E7F826080932901AF
S1131A608BE0B2C08FB7F894992710924B0172C0E3
S1131A708FB7F8949927F0900A018FBF63E081E053
S1131A800E948A00882359F10FB7F8941127109205
S1131A9011011092100187B78F7E87BF87B78F7DA2
S1131AA087BF83E00E94B406C09A0FBF0FB7F894B3
S1131AB0112710923B0110923A010E948102C09AB0
S1131AC089B78F7B89BF0FBF10920C0110920B0155
S1131AD0DE98DD98DE9A81E00E94F60006C08FB79A
S1131AE0F894992710934B018FBF00910302109132
S1131AF004020E94B80180910901882309F0DFC221
S1131B0060912E0170912F016017710709F0D7C2FF
S1131B104F2DD3C28FB7F894282F3327122F8091DB
S1131B203801882309F581E08093380180910B0105
S1131B3090910C01049721F481E00E94D70403C022
S1131B4084E00E94F6001FBFBAC28FB7F8949927A9
S1131B50109238018FBFB3C28FB7F894282F332760
S1131B6080910D01882311F02FBFA9C22FBF80B32C
S1131B70992776E0969587957A95E1F7182F117055
S1131B8090912B01809154018917D9F01917C9F448
S1131B9084E090E090930C0180930B018FB7F8944C
S1131BA0992721E020930D018FBF60E070E08DE163
S1131BB00E9448070E947F05C09AC09880E00E9456
S1131BC0F6001093540185E00E94F60078C28FB7A6
S1131BD0F8949927109102018FBF123009F460C064
S1131BE0133030F4112359F0113009F068C243C0A6
S1131BF0133009F46FC0143009F061C29BC0C0985F
S1131C008FB7F894082F112780910B0190910C0144
S1131C10029779F583E090E090930C0180930B0197
S1131C2068E170E08DE10E94480781E080932B0118
S1131C3010920D0180B3992766E0969587956A9571
S1131C40E1F7817090708093540185E00E94F60062
S1131C5081E00E94AF056FE772E08CE10E944807C3
S1131C600E94A9070E946F0766E57AE287E10E9455
S1131C7048070FBF24C2C09886E00E94AF050E94A7
S1131C80A9070E946F070E947F05C09AC09883E04D
S1131C900E94AF05C09A81E00E94B40684E094CF0C
S1131CA0C0988FB7F894082F112760E080E00E9455
S1131CB08A00882311F00FBF0AC00FBF83E50E947A
S1131CC01D0180E00E941D0180E00E941D01C09A58
S1131CD082E02DC08FB7F8949927209110018FBF0F
S1131CE0243039F0283041F0223001F50E94BA073F
S1131CF0E6C10E94AD09E3C1C09889E00E94AF0526
S1131D00C09A83E00E94B4068FB7F894992721E023
S1131D1030E030931101209310018FBF8FB7F894F6
S1131D20992710930A018FBF82E04ECF83E00E946F
S1131D30B406C5C10E94FC05C2C10FB7F8941127AF
S1131D4040919C0150919D0160913001709131014D
S1131D508091500190915101109231011092300103
S1131D60109251011092500110929D0110929C0109
S1131D70109237011092360120E00E94960A79CF22
S1131D802FB7F8943327809197018093050182E05F
S1131D9080930F012FBF80910501882309F08FC123
S1131DA0B89AC09886E010CFA0911501B0911601A1
S1131DB01C91FD01E10FF11D8081881F8827881F78
S1131DC0ED018BA780818F7789A73197808188A7C0
S1131DD0E0911501F09116018FB7F894992720919D
S1131DE039018FBF2223F9F0878146812FB7F894F8
S1131DF033276091F3017091F4012FBF9927982F35
S1131E0088275527842B952B8617970761F08781A0
S1131E1026819927982F88273327822B932B8F5F2E
S1131E209F4F09F06AC01D3008F467C0A0911501E6
S1131E30B0911601ED018A858F3309F05AC0898566
S1131E4028859927582F44273327422B532B6B81FE
S1131E508FEF809306028FB7F894782F20E030E05C
S1131E60E9EDF1E0808191818417950729F482815D
S1131E70861731F1209306022F5F3F4F33962430AB
S1131E80310581F77FBF909106023FB7F8949F3FD9
S1131E9021F0809113018917A9F420911301822F55
S1131EA09927FC01EE0FFF1FE80FF91FE752FE4FC1
S1131EB05183408362832F5F2370209313010EC0EC
S1131EC07FBF17C0892F9927FC01EE0FFF1FE80F72
S1131ED0F91FE752FE4F518340836283832F992772
S1131EE08FBFFD0183A5882321F08FB7F89499272C
S1131EF08FBFB0931601A09315018FB7F89499275B
S1131F00109235018FBF0E940207D9C080912A0127
S1131F10882361F52091E5013091E6014091E701C4
S1131F205091E801EFB7F894FF2760919101709107
S1131F3092018091930190919401E090D301F090EB
S1131F40D4010091D5011091D6016E0D7F1D801F23
S1131F50911FEFBF2093E5013093E6014093E70121
S1131F605093E80110922A010E9467020E94BF0167
S1131F706EC00E94BF015B016C018FB7F894992772
S1131F8010929E018FBF8091200181FF25C0809116
S1131F90180190911901A0911A01B0911B01A60199
S1131FA09501281B390B4A0B5B0BE0901C01F09048
S1131FB01D0100911E0110911F01E21AF30A040B86
S1131FC0150B3FEFE3163FEFF3063FEF03073FE741
S1131FD0130711F061E009C0BFEFEB2EBFEFFB2E3A
S1131FE0BFEF0B2FBFE71B2F60E08091290181FF1A
S1131FF024C08091210190912201A0912301B091EC
S11320002401A6019501281B390B4A0B5B0BDA014D
S1132010C901209125013091260140912701509159
S11320202801281B390B4A0B5B0B2E153F05400773
S113203051071CF479018A0103C0662309F43FC0E7
S11320401E141F04100611062CF0C601B5010E94CF
S11320509F0835C0E092E501F092E6010093E701A4
S11320601093E80181E080932A01A8019701C60139
S1132070B5010E94670223C021E0EEE2F1E09091F5
S1132080F101822F892339F011821082822F8095E9
S113209098239093F101329631E0EE33F30779F00F
S11320A0220FEDCF80910901E82FFF27EE0FFF1FCC
S11320B0E25DFE4F6081718141E00E943E09DF9143
S11320C0CF911F910F91FF90EF90DF90CF90BF9031
S11320D0AF9008958091F2018F3FB1F0282F3327FC
S11320E0F901EB50FE4F80818093F2018F3F11F490
S11320F0809305028FEF80832F3F31F0822F0E945F
S11321008C0C81E090E0089580E090E00895CFEF9A
S1132110D0E1DEBFCDBF1FB7F8944EE050E06FEFC3
S113212070E085EF91E00E9437158FEF8093F20104
S11321308093050281E08EBD88E080BF83E083BF89
S11321408CB59DB54AE72CB53DB52817390708F479
S11321504150442311F0C901F6CF92B782B78917D1
S1132160E9F32CB53DB592B782B78917E9F38CB57D
S11321709DB5821B930B4096F5E096958795FA954D
S1132180E1F79093900180938F0113BE83B78EBDC6
S11321908EB580BF12BE1DBC1CBC8FEF86BF86B738
S11321A080937C0080B7992787709070892BD1F732
S11321B0D29AD19AD09ADA9AD99AD89A15BA8FEF34
S11321C084BBD498DC981DBC1CBC87B7846087BFD3
S11321D08EB5887F84608EBD80E285BF0E946A10C0
S11321E08823E1F7E9EDF1E08FEF9FEF918380839E
S11321F01282339621E0E53EF207C1F70E949C0269
S11322006093170180910001909101010196AA2722
S1132210BB2780933C0190933D01A0933E01B09372
S11322203F0180B7886080BF8BE083BF86EE81BFAB
S113223087B7826087BF0E94E6018FE991E090939F
S11322401601809315018E98B89A8C988FEF80931D
S1132250080210924A0110924B0110924C01109204
S11322604D01B89AD69AD59A8FB7F89499272091A8
S11322700601309107018FBF3093F4012093F301DD
S113228080910801992790935601809355018FE11D
S113229080934F018AE18093E90181E080933901C1
S11322A01092EE0180934001109249010E946A103D
S11322B08823E1F7812F99278FBF789461E081E02B
S11322C00E9470008823E9F48FB7F894282F3327ED
S11322D080910B0190910C01892B11F02FBF1BC031
S11322E081E090E090930C0180930B012FBFDD9A65
S11322F00E941C0324E130E040E050E00E94D90336
S11323000AC062E081E00E948A00882321F461E02F
S113231081E00E948A008FB7F894482F552749C05E
S113232087B7992783709070892B19F4E5E0F0E062
S113233013C080B7992787709070892BD1F781B724
S113234092B7891B8C3030F082B7853F18F4E3E0F4
S1132350F0E002C0E2E0F0E087B7887BC1F480914E
S11323607D008B7FA1F46E9912C08AB190919A007E
S1132370892B807C61F48091740082FD08C0379BB6
S113238003C081E090E005C085E090E002C080E0F9
S113239090E025B78E1708F4E82FFF27E457FF4F86
S11323A0C895E02D237E2062E22BE5BF78948895C2
S11323B0F8948091F2018F3F09F4B2CF282F33278C
S11323C0F901EB50FE4F80818093F2018F3F11F4AD
S11323D0809305028FEF80832F3F09F4A1CF4FBF75
S11323E0822F0E948C0C97CF78941F920F920FB675
S11323F00F9211242F923F924F925F926F927F928D
S11324008F929F92AF92BF92CF92DF92EF92FF9200
S11324100F931F932F933F934F935F936F937F93E8
S11324208F939F93AF93BF93EF93FF93CF93DF93D8
S1132430CDB7DEB72F97F894DEBF7894CDBF2CB517
S11324403DB53F872E8780E286BF0E941C039B0117
S1132450AC018E859F857C0100271127DA01C90113
S1132460A070B0708E159F05A007B10798F4212CB9
S1132470312C7FEF472E7FEF572E220E331E441E42
S1132480551E80E090E0AFEFBFEF282239224A22A8
S11324905B220AC0212C312C6FEF462E6FEF562E93
S11324A022223322442255222E283F28402A512A10
S11324B08FB7F89489838091100190911101853030
S11324C0910521F0069709F0DBC0BAC086E090E0E0
S11324D0909311018093100191E09093950180E015
S11324E00E94F4032091470130914801F90121AA87
S11324F0BB27A52D942D832D8A839B83AC83BD8319
S113250080ABC201AA27BB278E839F83A887B98784
S113251087A7852D9927AA27BB278A879B87AC87FE
S1132520BD8786A7E0914701F091480185A58823DE
S113253009F464C080813C968550E80FF11D94EF46
S1132540892E9FEF992E8E0E9F1ED4012C9185EF1C
S1132550682E8FEF782E6E0E7F1ED301EC90BF0194
S11325606A507040DB018C913997A0809927AA2783
S1132570BB27BA2FA92F982F8827332744275527FD
S1132580522F442733272227FF24002711278701AE
S1132590FF24EE242E293F29402B512BBB24CC248D
S11325A0DD242A293B294C295D29822B932BA42B3A
S11325B0B52B82199309A409B5098083292F3A2FD1
S11325C04B2F5527FB0120839D0144275527F301F9
S11325D020838B2F9927AA27BB27F4018083C098D7
S11325E0E0914701F091480160816550772724E02C
S11325F0A40180E090E00E943E05C09AE09147016A
S1132600F0914801818185FF03C0F1E0F09314014A
S113261083E00E94B40687B78F7E87BFA0914701ED
S1132620B0914801FD0181818770813039F421AA7C
S11326302A8120AB3E8137A78A8586A784996DC0FD
S11326401092950181E00E94F403E0914701F0911A
S11326504801818185FF0FC087E090E090931101CC
S1132660809310010E941C0320E031E040E050E020
S11326700E94D90303C080E00E946C09849B4DC072
S113268080911201882349F511E0109395010E946D
S1132690F40380919601883098F4E0918B01E80F5F
S11326A0FF27E770F070EE0FFF1FEE0FFF1FE75FCD
S11326B0FD4F20823182428253828F5F8093960144
S11326C010931201AE85BF85B093D801A093D701B2
S11326D0849B03C0B981BFBF22C01092950181E0E1
S11326E00E94F403109212018091D7019091D801B5
S11326F0EE85FF85E81BF90B3A9778F480919601F3
S1132700882319F08150809396018091470190911C
S11327104801009711F00E948D02F981FFBF2F96A6
S1132720F894DEBFCDBFDF91CF91FF91EF91BF91C0
S1132730AF919F918F917F916F915F914F913F9155
S11327402F911F910F91FF90EF90DF90CF90BF904A
S1132750AF909F908F907F906F905F904F903F903D
S11327602F900F900FBE0F901F901895ACE2B0E021
S1132770ECEBF3E10C949015222E332E442E552EBF
S1132780662E772E882E992EFE013196A8E011929E
S1132790AA95E9F729823A824B825C826D827E8215
S11327A08F829886FE013996B8E01192BA95E9F7BE
S11327B0A986BA86CB86DC86ED86FE860F87188BC3
S11327C089819A81AB81BC8189A79AA7ABA7BCA751
S11327D07C018D018FEF9FEFA0E0B0E0E822F922A9
S11327E00A231B2389A59AA5ABA5BCA51D014424D6
S11327F0552489859A85AB85BC858DA39EA3AFA3FB
S1132800B8A75C016D018FEF9FEFA0E0B0E0A822B4
S1132810B922CA22DB228DA19EA1AFA1B8A53D0198
S113282088249924C801B701A60195010E94711555
S113283069A37AA38BA39CA3C801B701A401930144
S11328400E9471157B018C01C201B101A6019501A1
S11328500E9471155B016C01C201B101A4019301D5
S11328600E9471153B014C01EA0CFB1C0C1D1D1D43
S113287089A19AA1ABA1BCA19D01442755272E0D86
S11328803F1D401F511F2A153B054C055D0540F4B3
S113289080E090E0A1E0B0E0680E791E8A1E9B1EE5
S11328A0CA01AA27BB27860D971DA81DB91D8D8FA8
S11328B09E8FAF8FB8A3A9013327222789A19AA19C
S11328C0ABA1BCA1A070B070280F391F4A1F5B1FB9
S11328D0298F3A8F4B8F5C8FA98CBA8CCB8CDC8C74
S11328E0ED8CFE8C0F8D18A1FE01719698E011926B
S11328F09A95E9F7ED8AFE8A0F8B188F2D813E8118
S11329004F8158856DA17EA18FA198A50E94711554
S11329103B014C012D853E854F85588969A57AA5D3
S11329208BA59CA50E9471152D893E894F89588DD0
S1132930260F371F481F591F260D371D481D591DC7
S11329402D8B3E8B4F8B588F6D887E888F88988C0B
S11329502A2D3B2D4C2D5D2D662D772D882D992DFF
S1132960E2E1AC960C94AC15A0E1B0E0EAEBF4E142
S11329700C949015222E332E442E552E662E772E2F
S1132980882E992E002309F466C088E0FE01319652
S113299011928A95E9F729833A834B835C836D838B
S11329A07E838F829887E0E2E01B1E16CCF52D8192
S11329B03E814F815885602F772767FD7095DA0136
S11329C0C901062E04C0B695A795979587950A94D4
S11329D0D2F78D879E87AF87B88B04C0220F331F31
S11329E0441F551FEA95D2F789819A81AB81BC8136
S11329F004C0B695A795979587956A95D2F7282B25
S1132A00392B4A2B5B2B29873A874B875C87298490
S1132A103A844B845C846D847E848F8498881BC044
S1132A201D861E861F86188A2E2F332727FD309574
S1132A30309521953F4F8D819E81AF81B88504C02B
S1132A40B695A795979587952A95D2F789879A87FA
S1132A50AB87BC87DCCF222D332D442D552D662D1D
S1132A60772D882D992DE2E160960C94AC15DC014C
S1132A7001C06D9341505040E0F70895991B79E0EF
S1132A8004C0991F961708F0961B881F7A95C9F7FA
S1132A9080950895AA1BBB1B51E107C0AA1FBB1F49
S1132AA0A617B70710F0A61BB70B881F991F5A95D6
S1132AB0A9F780959095BC01CD01089597FB092E47
S1132AC007260AD077FD04D0E5DF06D000201AF4EB
S1132AD0709561957F4F0895F6F7909581959F4F76
S1132AE00895629FD001739FF001829FE00DF11D54
S1132AF0649FE00DF11D929FF00D839FF00D749F74
S1132B00F00D659FF00D9927729FB00DE11DF91F1F
S1132B10639FB00DE11DF91FBD01CF01112408957C
S1132B202F923F924F925F926F927F928F929F92D9
S1132B30AF92BF92CF92DF92EF92FF920F931F93C7
S1132B40CF93DF93CDB7DEB7CA1BDB0B0FB6F89478
S1132B50DEBF0FBECDBF09942A88398848885F84B8
S1132B606E847D848C849B84AA84B984C884DF8029
S1132B70EE80FD800C811B81AA81B981CE0FD11D0D
S1132B800FB6F894DEBF0FBECDBFED010895FFCFA1
S10D2B900100FFFFFFFF0100220116
S9030000FC
