S01800006275696C642F6D6963617A2F6D61696E2E73726563E5
S11300000C945B010C94D3050C94DD050C94E7056A
S11300100C94F1050C94FB050C9405060C94FE0B52
S11300200C940F060C947A010C947A010C94930DA1
S11300300C946D160C949D050C94B3050C94B7099F
S11300400C948C050C94E5100C94B2070C947A0172
S11300500C942E080C947A010C947A010C947A0175
S11300600C94A8050C9484090C9463090C946E09EF
S11300700C9479090C9497090C9446090C947A0110
S11300800C9458090C947A010C947A015F11AC1108
S1130090B211F4110F12151250123F136313771398
S11300A0B314E61433150B16151617161A16221662
S11300B000002110422063308440A550C660E770E0
S11300C0088129914AA16BB18CC1ADD1CEE1EFF188
S11300D03112100273325222B5529442F772D66230
S11300E0399318837BB35AA3BDD39CC3FFF3DEE3D8
S11300F06224433420040114E664C774A444855480
S11301006AA54BB528850995EEE5CFF5ACC58DD527
S11301105336722611163006D776F6669556B446CF
S11301205BB77AA719973887DFF7FEE79DD7BCC777
S1130130C448E5588668A77840086118022823381F
S1130140CCC9EDD98EE9AFF9488969990AA92BB9C7
S1130150F55AD44AB77A966A711A500A333A122A6F
S1130160FDDBDCCBBFFB9EEB799B588B3BBB1AAB17
S1130170A66C877CE44CC55C222C033C600C411CBF
S1130180AEED8FFDECCDCDDD2AAD0BBD688D499D67
S1130190977EB66ED55EF44E133E322E511E700E0F
S11301A09FFFBEEFDDDFFCCF1BBF3AAF599F788FB7
S11301B08891A981CAB1EBA10CD12DC14EF16FE197
S11301C08010A100C230E3200450254046706760CF
S11301D0B9839893FBA3DAB33DC31CD37FE35EF3E7
S11301E0B1029012F322D23235421452776256721F
S11301F0EAB5CBA5A89589856EF54FE52CD50DC537
S1130200E234C324A014810466744764245405446E
S1130210DBA7FAB79987B8975FE77EF71DC73CD786
S1130220D326F2369106B0165766767615463456BE
S11302304CD96DC90EF92FE9C899E9898AB9ABA9D6
S11302404458654806782768C018E1088238A3280E
S11302507DCB5CDB3FEB1EFBF98BD89BBBAB9ABB26
S1130260754A545A376A167AF10AD01AB32A923A5E
S11302702EFD0FED6CDD4DCDAABD8BADE89DC98D76
S1130280267C076C645C454CA23C832CE01CC10CAE
S11302901FEF3EFF5DCF7CDF9BAFBABFD98FF89FC6
S11302A0176E367E554E745E932EB23ED10EF01EFE
S11302B000081C18141011241FBECFEFD0E1DEBFBC
S11302C0CDBF11E0A0E0B1E0EAE1F6E300E00BBF4E
S11302D002C007900D92A031B107D9F712E0A0E156
S11302E0B1E001C01D92A63DB107E1F70E940517D8
S11302F00C940C1B0C9400008FB7F8949927089564
S11303008FBF0895282F9FB7F894E82FFF27E4564E
S1130310FD4F80818F3F81F4E091B002E21771F4C8
S11303200BC02093990204C0FF27E456FD4F20839D
S11303302093B00220E007C025E005C08091990217
S11303408F3F91F7EECF892F99278FBF822F99275F
S113035008959FB7F894809188028A3011F020E0C4
S113036006C020E080918B01843009F421E0892FBC
S113037099278FBF222349F08EE00E9482018FB714
S1130380F894992710921A0106C08FB7F894992708
S113039021E020931A018FBF08952FB7F8943327D3
S11303A08CB95E9A2FBF0895FC016115710519F48B
S11303B081E090E008958091D4029091D502892B38
S11303C019F085E090E0089570938B0260938A029F
S11303D0F093D502E093D4021092400110923F01B1
S11303E081E080935A015E9A569A808121E030E040
S11303F03093400120933F010E94CD0180E090E0C2
S1130400089580912B018E7F80932B018EE780933A
S11304103B0261E070E08BE392E00E94D4019927F3
S113042008951F931FB7F89480916501882341F4C0
S11304308CE00E948201882319F481E08093650195
S1130440812F99278FBF1F9108957FB7F89462B7C2
S11304502091F9013091FA014091FB015091FC0186
S113046006B601FE0FC081B792B7280F311D411D9A
S1130470511D2F5F3F4F4F4F5F4F290F311D411DBE
S1130480511D04C0260F311D411D511D872F992771
S11304908FBFCA01B9010895EF92FF920F931F9382
S11304A0E0913801E1FF2BC02091300130913101FE
S11304B04091320150913301E0903401F0903501C4
S11304C00091360110913701621B730B840B950B5D
S11304D06E157F058007910790F0E0FF04C0ED7F63
S11304E0E09338010CC02E0D3F1D401F511F209377
S11304F030013093310140933201509333018BE04A
S11305000E9482011F910F91FF90EF900895DF9256
S1130510EF92FF920F931F938FB7F894282F3327EE
S1130520D22E91B782B746B7981711F041FF02C097
S11305302FBF68C08091FF018823D1F10E9425025A
S1130540E0908701F09088010091890110918A015F
S11305502091340230913502409136025091370295
S11305606E197F09800B910B621773078407950737
S113057028F01092FF0186EE71E01CC02E0D3F1D85
S1130580401F511F8091F9019091FA01A091FB0144
S1130590B091FC01281B390B4A0B5B0B273E31053C
S11305A04105510528F4822F223018F482E001C05D
S11305B086EE70E0682F615000B601FCFDCF82B773
S11305C0681709F46F5F2091F9013091FA014091A5
S11305D0FB015091FC01DA01C9010196A11DB11D75
S11305E0860F911DA11DB11D82179307A407B5079E
S11305F010F4622F609561BFDFBE772319F08AE0A3
S11306000E9482011F910F91FF90EF90DF90089557
S1130610AFB7F894BB27E1E0E093FF016093870153
S1130620709388018093890190938A012093340206
S1130630309335024093360250933702AFBF0E9485
S113064087020895E82F8FB7F894282F332790E076
S1130650FF27EA59FE4F8081861709F491E02FBFE6
S1130660892F99270895882311F06E9A08956E981A
S113067008951F93182F81E00E9433031FB9779BBD
S1130680FECF8FB199271F910895882311F06F9A97
S113069008956F9808958F929F92AF92BF92CF92D0
S11306A0DF92EF92FF920F931F93CF93DF938FB755
S11306B0F8949927C0906D01D0906E018090460106
S11306C090904701C0914F01D09150012091FD01BC
S11306D03091FE019AE0A92EB12CAC0EBD1E2A1554
S11306E03B0508F459018FBF7401EC0EFD1E860111
S11306F00C0F1D1F14C0C114D10419F0F80180811E
S113070001C080E00E9439038114910411F0F701C3
S1130710808321960894E11CF11C0F5F1F4FC501D3
S11307200197C817D90738F381E00E9445039FB7A2
S1130730F894C114D10431F0CC0EDD1EF601808191
S11307408FB901C01FB8D0935001C0934F01892FB6
S113075099278FBF80E090E0DF91CF911F910F9197
S1130760FF90EF90DF90CF90BF90AF909F908F90CD
S113077008952FB7F89433275093FE014093FD0159
S113078090936E0180936D017093470160934601CD
S11307901092500110924F012FBF452B29F08FB1B9
S11307A00E944B039927089587E00E94820180E00C
S11307B090E00895282F9FB7F894662349F0E82F16
S11307C0FF27EA59FE4F8081882311F021E006C0FB
S11307D0E22FFF27EA59FE4F608320E0892F9927F3
S11307E08FBF822F9927089580E00E943303BA9A1D
S11307F0BB98B99A6C9A80E00E944503709A6B98F2
S11308006A98689881E00E943303089580E8809391
S1130810480110924C0110927A0110928D011092AD
S1130820B2020895CF93DF93FC0115A6DC019E96D6
S1130830ED011B821A82198280E886A7DF91CF918D
S113084008952F923F924F925F926F927F928F9270
S11308509F92AF92BF92CF92DF92EF92FF920F934B
S11308601F93CF93DF93CDB7DEB728970FB6F894D5
S1130870DEBF0FBECDBF209056013090570140908F
S11308805801509059016624772488244EE4A42EFC
S113089033E8B32ECC24DD24EE24FF2400E010E062
S11308A0222D332D442D552D662D772D882D90E046
S11308B00E94D91829833A834B835C836D837E839A
S11308C08F839887822E932EA42EB52E2401350172
S11308D000E20E94D719A22EB32EC42ED52EC30136
S11308E0B20196958795779567956A0D7B1D8C1D4A
S11308F09D1D97FF05C09F776F5F7F4F8F4F9F4F61
S11309006093560170935701809358019093590155
S113091028960FB6F894DEBF0FBECDBFDF91CF91FE
S11309201F910F91FF90EF90DF90CF90BF90AF9009
S11309309F908F907F906F905F904F903F902F90FB
S113094008958FB7F89460914A0170914B012CB5CA
S11309503DB506B602FE04C06F5F7F4F2CB53DB5B2
S113096099278FBF88279927CB01772766274427A4
S11309705527622B732B842B952B0895EF92FF92AE
S11309800F931F930E94A1047B018C0120915C01B1
S113099030915D0140915E0150915F01809184022C
S11309A090918502A0918602B0918702820F931FD5
S11309B0A41FB51FE216F3060407150730F08217CB
S11309C09307A407B50758F005C082179307A40737
S11309D0B507E0F5E816F9060A071B07B8F59C0108
S11309E0AD012E193F09400B510B213060E8360749
S11309F060E0460760E0560768F180E090E8A0E018
S1130A00B0E0E80EF91E0A1F1B1FE0925C01F09291
S1130A105D0100935E0110935F0180E090E8AFEF09
S1130A20BFEFE80EF91E0A1F1B1F2050304840403C
S1130A305040209384023093850240938602509361
S1130A40870220E030E840E050E014C020E030E0CD
S1130A5040E050E080935C0190935D01A0935E01BF
S1130A60B0935F0110928402109285021092860264
S1130A7010928702A901B7012CB53DB5C9018E19A1
S1130A809F0903968417950720F0B9016D5F7F4F86
S1130A9002C0640F751F6115710511F461E070E007
S1130AA0615070407BBD6ABD80E186BF87B78061BD
S1130AB087BF1F910F91FF90EF9008950F931F939D
S1130AC00FB7F894112760935C0170935D018093D4
S1130AD05E0190935F0120938402309385024093DA
S1130AE08602509387020E94BE040FBF1F910F918C
S1130AF0089597B79F7D97BF90E296BF882319F01A
S1130B008EB5806402C08EB58F7B8EBD87B7806240
S1130B1087BF80E090E008951F920F920FB60F9266
S1130B2011248F9383B783BF00B600FCFDCF8F9150
S1130B300F900FBE0F901F90189578941F920F92EC
S1130B400FB60F9211240F900FBE0F901F9018959F
S1130B5078941F920F920FB60F9211240F900FBE2C
S1130B600F901F90189578941F920F920FB60F92C2
S1130B7011242F933F938F939F932FB7F894332788
S1130B8080914A0190914B01019690934B0180937F
S1130B904A012FBF9F918F913F912F910F900FBECC
S1130BA00F901F9018951F920F920FB60F92112459
S1130BB00F900FBE0F901F9018951F920F920FB6B3
S1130BC00F9211240F900FBE0F901F9018951F9233
S1130BD00F920FB60F9211240F900FBE0F901F901B
S1130BE018951F920F920FB60F9211240F900FBEFB
S1130BF00F901F9018951F920F920FB60F92112409
S1130C000F900FBE0F901F9018951F920F920FB662
S1130C100F9211240F900FBE0F901F9018951F92E2
S1130C200F920FB60F9211240F900FBE0F901F90CA
S1130C301895E0EBF0E06927660FF11DE60FF11D52
S1130C40C895982F802D3196C89590250895982F92
S1130C5080912601882381F5992371F531E0309341
S1130C602601809109018093270120911B01822F85
S1130C7081708093520180910E0190910F019093A5
S1130C8029018093280180911C0180932A01322735
S1130C903170267EE32FFF27EE0FFF1FE65FFE4F26
S1130CA08081918190930F0180930E01232B2093D7
S1130CB01B0181E10E94820108950F931F93082F65
S1130CC0162F80918B018130D9F0813038F0823039
S1130CD009F44AC0833009F00EC159C0002309F455
S1130CE03EC11092420110924101109238021092BA
S1130CF03C021092790110923D0110923C011FC1F7
S1130D00002309F02CC180913C0190913D010E9487
S1130D10190690933D0180933C0182E080938B01FE
S1130D2010933C02143409F0E6C00BC1869504C04C
S1130D3080911B0186958695817009F0DCC08091B5
S1130D401B01992311F0846001C0826080931B0110
S1130D5080911B01877E886080931B0110921C0187
S1130D608FEF80930901FBC0002309F0C4C0609396
S1130D70790180913C0190913D010E941906909364
S1130D803D0180933C0183E080938B01E8C0809116
S1130D9038028F3F09F4AFC0002309F447C0823002
S1130DA008F4A9C0E0914101EE2309F4D1C04E2F0B
S1130DB04150E42FFF27EF5BFE4F82819927382FA4
S1130DC02227442311F4E2E002C0E42FE150FF277C
S1130DD0EF5BFE4F82819927282B392B80913C01B0
S1130DE090913D012817390709F085C080E00E94E1
S1130DF027063091790180918F0220919002982FDB
S1130E009F5F963008F090E0921709F474C0E82FC1
S1130E10FF27E157FD4F32838F5F80938F02863027
S1130E2010F010928F020E94110265C0823008F403
S1130E304EC0E0914201FF27EF5BFE4F8281482FB5
S1130E405527342F20911B01822F869586958695F0
S1130E50837099278130910519F00297F9F40EC037
S1130E60277E206120931B01442311F485E001C0F7
S1130E7080E080931C013093090110C080911C0113
S1130E80843360F4E0910E01F0910F01E80FF11D3D
S1130E90408380911C018F5F80931C0180914201EB
S1130EA0E82FFF27EF5BFE4F62818F5F8093420143
S1130EB0833010F010924201772780913C01909189
S1130EC03D010E94190690933D0180933C0180915D
S1130ED04101E82FFF27EF5BFE4F12838F5F809362
S1130EE04101833010F010924101809138028F5FEC
S1130EF08093380234C01092420110924101109242
S1130F008B011092380210923C02109279011092D7
S1130F103D0110923C0180912B018D7F80932B0128
S1130F2081E00E94270680911A01882331F084E031
S1130F3080938B010E94A90112C0002381F081E0FB
S1130F4023CF80911B01982F917080FDEFCEF0CEBE
S1130F50809145019927382F222742E036CF1F91EF
S1130F600F9108951F920F920FB60F9211242F9391
S1130F703F934F935F936F937F938F939F93AF931D
S1130F80BF93EF93FF935F9B3DC06CB1E091490227
S1130F90F0914A023097F9F080917F01909180019D
S1130FA0E80FF91F608301969093800180937F017D
S1130FB020918F01309190018217930718F11092BC
S1130FC04A0210924902809149018330D9F057981E
S1130FD01092490117C06E3719F460E081E010C027
S1130FE080912B016D3721F4826080932B010AC01C
S1130FF081FF05C08D7F80932B0180E2682780E00C
S11310000E945D06FF91EF91BF91AF919F918F91E7
S11310107F916F915F914F913F912F910F900FBEF0
S11310200F901F901895982F8D57823068F48091F7
S11310302B01816080932B0180E2892780936C01CE
S11310408DE780933B0202C090933B0261E070E025
S11310508BE392E00E94D4019927089578941F921B
S11310600F920FB60F921124FF920F931F932F9399
S11310703F934F935F936F937F938F939F93AF931C
S1131080BF93CF93DF93EF93FF9320913F01309170
S1131090400180918A0290918B022817390780F4CD
S11310A0E091D402F091D502E20FF31F80812F5F0B
S11310B03F4F3093400120933F010E94CD01D0C0A7
S11310C01092D5021092D40210925A01569880912F
S11310D02B0180FF0EC08E7F80932B0180916C01C9
S11310E080933B0261E070E08BE392E00E94D401C4
S11310F0B7C080918802843009F494C0853040F4EC
S1131100823021F18330B8F5813009F0A4C00DC0DC
S1131110863009F495C0863008F48BC0873009F412
S113112096C0883009F097C099C080918E020E94C1
S11311301308182F83E08093880260918E028091B7
S11311407401909175010E94190610C080917E016E
S11311500E941308182F83E08093880260917E0117
S113116080917401909175010E9419069093750104
S1131170809374016EC0FFB6F894E0918902FF2752
S1131180EE0FFF1FEC57FE4F80810E941308082FBB
S113119010918902C12FDD27FE01EE0FFF1FEC57CE
S11311A0FE4F608180917401909175010E9419062F
S11311B09093750180937401209178012F5F20939F
S11311C07801113039F580912201E0911D01F091EF
S11311D01E01E80FF11DE0818F5F80932201909141
S11311E02101981730F482E08093850140E050E0BB
S11311F002C04E2F5527DE01AA0FBB1FFD01ED577C
S1131200FE4F8081823031F02F3F21F0AC57BE4F2A
S11312104C9303C084E080938802102F8F2D99276C
S11312208FBF17C0809174010E941308182F85E0A6
S11312300BC0809175010E941308182F86E004C02A
S11312400E940102182F87E08093880202C088E080
S113125003C0112329F089E0809388020E941102BF
S1131260FF91EF91DF91CF91BF91AF919F918F91BA
S11312707F916F915F914F913F912F911F910F91AA
S1131280FF900F900FBE0F901F9018951F920F9212
S11312900FB60F9211248F9380919B0087FF02C099
S11312A080919C008F910F900FBE0F901F90189506
S11312B078941F920F920FB60F9211240F900FBEC5
S11312C00F901F90189578941F920F920FB60F925B
S11312D011240F900FBE0F901F90189578941F92B1
S11312E00F920FB60F9211240F900FBE0F901F9004
S11312F0189578941F920F920FB60F9211240F90A5
S11313000FBE0F901F90189578941F920F920FB6EE
S11313100F9211248F939F9380918800909189005C
S11313209F918F910F900FBE0F901F9018957894F6
S11313301F920F920FB60F9211242F933F938F9306
S11313409F932FB7F894332780914D0190914E01CC
S1131350019690934E0180934D012FBF9F918F91E1
S11313603F912F910F900FBE0F901F9018951F92D1
S11313700F920FB60F9211242F933F934F935F93C5
S11313806F937F938F939F93AF93BF93EF93FF9349
S113139083B783BF00B600FCFDCF81B799270196C0
S11313A0AA27BB272091F9013091FA014091FB0152
S11313B05091FC01280F391F4A1F5B1F2093F9012C
S11313C03093FA014093FB015093FC0178940E94FE
S11313D08702FF91EF91BF91AF919F918F917F9180
S11313E06F915F914F913F912F910F900FBE0F908E
S11313F01F9018951F93182F61E080E00E94DA0374
S1131400882319F085E090E023C0809105018823AA
S113141099F480911501823079F409C082E08093B7
S11314201501109205010E94F403B89AC098109314
S1131430020180E099270CC080911501882371F383
S11314408FB7F8949927109266018FBF81E0F2CF8D
S11314501F9108951F93182F61E080E00E94DA0322
S1131460882371F510930201809105018823A9F561
S113147080911501823089F586E00CC00E94F40346
S113148080911501882349F481E08093150110921D
S11314908E0188E00E9482012AC08091B3028F3FAE
S11314A031F5E0910401EE2311F11CC01092030107
S11314B004C0FF27ED54FD4F10821092040117C0A1
S11314C081E090E002C0880F991F1A95E2F72091FD
S11314D01401282B209314010AC08091150188233C
S11314E0E1F6CCCF809103018F3F19F7DFCF80E085
S11314F090E01F910895CF92DF92EF92FF920F93A5
S11315001F93CFB6F894DD240E942104DC01CB01A3
S113151066E470E00E946D1A1BE0E12EF12CE80EE7
S1131520F91EF0927001E0926F010E94A10400275D
S11315301127A80197010E945E05CFBE1F910F914C
S1131540FF90EF90DF90CF900895CF92DF92EF92CB
S1131550FF920F931F93CF93DF938C01F62E6A01B2
S1131560E22E8FB7F894C82FDD2760E080E00E9458
S11315702203882321F0CFBF80E090E01EC0CFBFBC
S11315800F0D111D802F80680E943903F82E1695C7
S11315900795802F807C0E9439030E2D0AC0EE2D02
S11315A0FF27E01BF109EC0DFD1D80810E9439032A
S11315B001500023A1F78F2D9927DF91CF911F911F
S11315C00F91FF90EF90DF90CF900895CF93DF932A
S11315D0CDB7DEB724970FB6F894DEBF0FBECDBFEC
S11315E08FB7F89499272091720130917301298360
S11315F0232F33272A8320919A0230919B022B8335
S1131600232F33272C838FBF24E0AE014F5F5F4F1E
S113161060E088E691E00E94A50A24960FB6F8944B
S1131620DEBF0FBECDBFDF91CF910895FF920F9320
S11316301F93CF93DF93F82E8B018FB7F894C82FA5
S1131640DD2760E080E00E942203882321F0CFBFE1
S113165080E090E00CC0CFBF8F2D0E943903812F12
S113166099270E943903802F0E9439039927DF911B
S1131670CF911F910F91FF9008951F931FB7F89476
S113168080915301882319F460E070E009C060E0A0
S113169080918C02882309F461E081E06827772730
S11316A080915B01882319F480E090E00AC090E007
S11316B080916401882309F491E081E09827892FBF
S11316C09927762F6627770F770F770FE4E0880F37
S11316D0991FEA95E1F7826E9262682B792B81E17A
S11316E00E94160B812F99278FBF1F9108958FB7E2
S11316F0F8949927609183028FBF85E0689FB001B9
S11317001124625D7E4F706488E10E94160B089577
S11317101F93CF93DF93182F8FB7F894C82FDD272B
S113172060E080E00E942203882321F0CFBF80E0A4
S113173090E005C0CFBF812F0E9439039927DF9124
S1131740CF911F910895EF92FF920F931F93CF9320
S1131750DF93182F7B01042F8FB7F894C82FDD2750
S113176060E080E00E942203882321F0CFBF80E064
S113177090E014C0CFBF1064812F992790937D010E
S113178080937C010E943903182F402F5527B701FD
S113179080E090E00E94B903812F9927DF91CF91D7
S11317A01F910F91FF90EF900895C09860912D01C3
S11317B070912E0141E08FE30E94A30B089582E013
S11317C090E0909355018093540181E080934C0103
S11317D020E030E080910201843011F421E030E017
S11317E0232B29F484E00E94FA09882319F40E9427
S11317F0D50B089584E00E942A0A08951F920F923F
S11318000FB60F9211242F933F934F935F936F93CF
S11318107F938F939F93AF93BF93EF93FF938091A5
S1131820540190915501019719F40E94DF0B05C0F2
S11318308091B2028F5F8093B202FF91EF91BF91CA
S1131840AF919F918F917F916F915F914F913F9154
S11318502F910F900FBE0F901F9018951F9380919A
S11318601401882309F046C0109102011F3F09F0BA
S113187041C060E00E9422038823E1F181E080936B
S11318803B0180912C018823C1F110923B0185E03A
S113189090E041C0923049F5C09A8091030190E0F4
S11318A08F3F09F491E09923D9F48F3F19F42FEF76
S11318B030E00DC0282F3327F901ED54FD4F80810E
S11318C0809303018F3F11F48093040110832093CC
S11318D08E0181E08093150188E00E94820105C099
S11318E0109305011092150111C0809115018823F0
S11318F069F00FC081E090E00EC0809105019091E5
S11319001501882339F2923021F0EFCF80E00E9454
S1131910330380E090E01F9108951F93CF93DF93EA
S11319209FB7F894C92FDD271C2F909102019817B7
S113193021F0CFBF81E090E03AC08FEF80930201A5
S1131940309114013323F1F48FB7F894992710924E
S113195066018FBF0E942E0CCFBF11C020930201DD
S113196081E090E002C0880F991F4A95E2F78095C4
S113197038233093140186E00E9482011FBF80E067
S113198090E015C080E065E0E32FFF270E94611A14
S1131990292F492F5527CF01042E02C095958795ED
S11319A00A94E2F780FDDACF822F8F5FEFCFDF91C9
S11319B0CF911F9108951F93CF93DF938FB7F8941E
S11319C0C82FDD271C2F8091540190915501892B3C
S11319D029F484E00E948D0CCFBF1EC010924C01EC
S11319E08091B202882311F0B79904C00E9908C0FF
S11319F0882319F081508093B2020E94DF0B0BC040
S1131A0081E090E090935501809354011092B202CA
S1131A1084E00E948D0C1FBFDF91CF911F91089528
S1131A200E940604C09AC09888E00E94880B88E04F
S1131A300E94880BC09A84E00E948D0C0E94DB0CEB
S1131A4008951F93182F81E090E0909317018093DD
S1131A50160110922C010E942E0C8FB7F89499272E
S1131A60109310018FBF82E00E9482011F9108959C
S1131A701F93CF93DF938FB7F894C82FDD271C2FC4
S1131A8080911601909117010897C9F489E00E948A
S1131A90880B83E00E948D0CC09A81E090E09093C3
S1131AA01701809316018FB7F894992723E02093A8
S1131AB010018FBF82E00E948201CFBF30C0C09866
S1131AC080916A01882311F085E001C084E00E94BE
S1131AD0880B83FD09C080E00E94880B83FF04C04B
S1131AE085E090E020E003C083E090E021E0909363
S1131AF0170180931601C09A1FBF222341F0109250
S1131B007B0183E00E948D0C0E947B0A08C00E9426
S1131B10A10420E431E040E050E00E945E05DF9142
S1131B20CF911F91089578941F920F920FB60F9240
S1131B3011242F923F924F925F926F927F928F92D5
S1131B409F92AF92BF92CF92DF92EF92FF920F9348
S1131B501F932F933F934F935F936F937F938F9331
S1131B609F93AF93BF93EF93FF93CF93DF93CDB73F
S1131B70DEB72F97F894DEBF7894CDBF2CB53DB572
S1131B803F872E8780E286BF0E94A1049B01AC019F
S1131B908E859F857C0100271127DA01C901A07079
S1131BA0B0708E159F05A007B10798F4212C312C35
S1131BB07FEF472E7FEF572E220E331E441E551EF5
S1131BC080E090E0AFEFBFEF282239224A225B2267
S1131BD00AC0212C312C6FEF462E6FEF562E222295
S1131BE03322442255222E283F28402A512A8FB7D7
S1131BF0F89489838091160190911701853091059D
S1131C0021F0069709F0DBC0BAC086E090E090931B
S1131C1017018093160191E090938C0180E00E945B
S1131C2079052091620130916301F90121AABB2752
S1131C30A52D942D832D8A839B83AC83BD8380AB98
S1131C40C201AA27BB278E839F83A887B98787A74A
S1131C50852D9927AA27BB278A879B87AC87BD87B1
S1131C6086A7E0916201F091630185A5882309F4B8
S1131C7064C080813C968550E80FF11D94EF892E55
S1131C809FEF992E8E0E9F1ED4012C9185EF682E06
S1131C908FEF782E6E0E7F1ED301EC90BF016A5039
S1131CA07040DB018C913997A0809927AA27BB2724
S1131CB0BA2FA92F982F8827332744275527522F27
S1131CC0442733272227FF24002711278701FF24D5
S1131CD0EE242E293F29402B512BBB24CC24DD2478
S1131CE02A293B294C295D29822B932BA42BB52B24
S1131CF082199309A409B5098083292F3A2F4B2F00
S1131D005527FB0120839D0144275527F301208398
S1131D108B2F9927AA27BB27F4018083C098E091D1
S1131D206201F091630160816550772724E0A4018A
S1131D3080E090E00E94A50AC09AE0916201F091CF
S1131D406301818185FF03C0F1E0F0932C0183E0FE
S1131D500E948D0C87B78F7E87BFA0916201B091DE
S1131D606301FD0181818770813039F421AA2A81C0
S1131D7020AB3E8137A78A8586A784996DC01092CF
S1131D808C0181E00E947905E0916201F091630188
S1131D90818185FF0FC087E090E0909317018093C5
S1131DA016010E94A10420E031E040E050E00E94CE
S1131DB05E0503C080E00E94210D849B4DC080918C
S1131DC01801882349F511E010938C010E947905CC
S1131DD080918D01883098F4E0917A01E80FFF2713
S1131DE0E770F070EE0FFF1FEE0FFF1FEC54FD4F76
S1131DF020823182428253828F5F80938D011093BF
S1131E001801AE85BF85B0933A02A0933902849B32
S1131E1003C0B981BFBF22C010928C0181E00E942F
S1131E207905109218018091390290913A02EE8559
S1131E30FF85E81BF90B3A9778F480918D0188238C
S1131E4019F0815080938D0180916201909163011A
S1131E50009711F00E941204F981FFBF2F96F894A5
S1131E60DEBFCDBFDF91CF91FF91EF91BF91AF91D5
S1131E709F918F917F916F915F914F913F912F919E
S1131E801F910F91FF90EF90DF90CF90BF90AF9094
S1131E909F908F907F906F905F904F903F902F9086
S1131EA00F900FBE0F901F901895EF92FF920F9313
S1131EB01F93CF93DF938B0180917C0190917D01DF
S1131EC086FF2AC18F7B8F3309F078C1C0912D0121
S1131ED0D0912E01588150933E01809154019091EC
S1131EE055018330910509F443C08430910509F408
S1131EF08AC0029709F009C183E090E090935501EC
S1131F008093540140914801852F99270196242FED
S1131F103327281739074CF1B79906C00E9904C026
S1131F20451B41504093480140913E014A32E8F438
S1131F304423A1F0BE016F5F7F4F483018F047E0A3
S1131F4050E007C084E090E09093550180935401E1
S1131F50552780E090E00E94B90330C110924C01F3
S1131F60C09A84E00E948D0CCDC00E94100D26C141
S1131F7084E090E0909355018093540180915B013B
S1131F80882309F439C0809164018823A9F58981E3
S1131F9085FF32C08F814E812FB7F894332760912B
S1131FA09A0270919B022FBF9927982F8827552753
S1131FB0842B952B8617970759F08F812E819927AB
S1131FC0982F88273327822B932B8F5F9F4FA1F461
S1131FD089818770813081F4C09AC0988AE00E9418
S1131FE0880BC09AC09840913E0147502896BE0184
S1131FF08FE30E94A30BE2C040913E014750552756
S11320002896BE01A6CFC09A8091B202882319F403
S113201084E00E948D0C80918D018823A1F1809130
S11320203E018B30B0F1E0917A01FF27EE0FFF1FE4
S1132030EE0FFF1FEC54FD4F20813181428153810B
S1132040E0912D01F0912E0121ABBB27A52F942FF8
S1132050832F80ABCA01AA27BB2787A7252F332745
S11320604427552726A780917A019927019668E08D
S113207070E00E94811A80937A0180918D018150D1
S113208080938D0106C080912D0190912E010E94B4
S1132090120480913E01FE01E80FF11D808187FF4B
S11320A031C0012B79F169816770E0912D01F091C4
S11320B02E01623019F5A0916201B091630110976D
S11320C009F180911601909117010797D9F4ED0158
S11320D09B8183819817B1F487B78F7E87BF9081E6
S11320E081E08CA7E90FF11D8291319688A7808148
S11320F08F7789A780E00E94210D04C0613011F41C
S113210089E02AC00E94DB0C59C010924C01C09A8D
S113211084E00E948D0C52C08E3309F04FC0C09AE7
S113212080911601909117010897C9F4C09889E02D
S11321300E94880BC09A83E00E948D0C81E090E09D
S113214090931701809316018FB7F894992723E091
S1132150209310018FBF82E00E9482012FC08091E2
S11321606A01882349F484E090E0909317018093F6
S113217016010E94380D22C083E00E948D0C83E07A
S113218090E090931701809316010E942104DC01D2
S1132190CB0166E371E00E946D1AEBE0EE2EF12CA8
S11321A0E80EF91EF0926101E09260010E94A10420
S11321B000271127A80197010E945E05DF91CF91A6
S11321C01F910F91FF90EF9008951F920F920FB6F9
S11321D00F9211242F933F934F935F936F937F93A9
S11321E08F939F93AF93BF93EF93FF932FB1E0919E
S11321F04601F0914701309739F080914F01909159
S11322005001E80FF91F208380914F0190915001F4
S113221001969093500180934F0180E00E94450302
S11322204091FD015091FE0180914F019091500128
S11322308417950718F40E944B031CC06091460153
S11322407091470180916D0190916E011092470148
S11322501092460110926E0110926D011092FE01CF
S11322601092FD011092500110924F012FB120E005
S11322700E94550FFF91EF91BF91AF919F918F9164
S11322807F916F915F914F913F912F910F900FBE6E
S11322900F901F901895EF92FF920F931F93CF9377
S11322A0DF93E82FFF27E231F10508F0F2C4EA5B7F
S11322B0FF4FEE0FFF1F0590F491E02D09940FB727
S11322C0F894112781E00E94790551E0E52EF12C64
S11322D0F0921701E09216011092180110922C014D
S11322E010928D020FBF0FB7F89411270E940604B5
S11322F0F0925501E092540110924C0189B78F7B02
S113230089BF80E488BF8AB780628ABF8AB78F7E1C
S11323108ABF89B7806489BF0FBF8FB7F894082F2D
S113232011278091110190911201049719F483E00F
S11323300E94880B0FBF0FB7F8941127C09A80E052
S11323400E948D0C0FBF8FB7F894992722E0209339
S113235067018FBF8DE0A1C08FB7F89499271092C1
S113236067016FC48FB7F89499278FBF63E081E04A
S11323700E942203882359F10FB7F8941127109271
S113238017011092160187B78F7E87BF87B78F7D9D
S113239087BF83E00E948D0CC09A0FBF0FB7F894DB
S11323A0112710925501109254010E940604C09AFC
S11323B089B78F7B89BF0FBF109212011092110150
S11323C0DE98DD98DE9A81E00E94820107C08FB713
S11323D0F894992722E0209367018FBF8FB7F89470
S11323E09927109268012DC48FB7F894282F3327AA
S11323F0122F80915101882301F581E080935101CE
S11324008091110190911201049721F481E00E94BE
S11324102A0A03C084E00E9482011FBF3AC48FB716
S1132420F8949927109251010CC48FB7F894282F6F
S1132430332780911301882311F02FBF2AC42FBFA3
S113244080B3992746E0969587954A95E1F7182F2A
S1132450117090913A01809171018917D9F019177F
S1132460C9F484E090E090931201809311018FB736
S1132470F894992721E0209313018FBF60E070E066
S11324808DE10E94160B0E94E60AC09AC09880E073
S11324900E9482011093710185E00E948201F9C3B8
S11324A08FB7F8949927109102018FBF123009F465
S11324B060C0133030F4112359F0113009F0E9C32E
S11324C043C0133009F46FC0143009F0E2C3D4C020
S11324D0C0988FB7F894C82FDD278091110190918F
S11324E01201029779F583E090E0909312018093B2
S11324F0110168E170E08DE10E94160B81E0809388
S11325003A011092130180B3992736E09695879586
S11325103A95E1F7817090708093710185E00E9493
S1132520820181E00E94880B6FE772E08CE10E94D7
S1132530160B0E94770B0E943D0B66E57AE287E159
S11325400E94160BCFBFA5C3C09886E00E94880BDB
S11325500E94770B0E943D0B0E94E60AC09AC09825
S113256083E00E94880BC09A81E00E948D0C84E075
S113257094CFC0988FB7F894082F112760E080E0BB
S11325800E942203882311F00FBF0AC00FBF83E506
S11325900E94390380E00E94390380E00E943903DD
S11325A0C09A82E066C08FB7F894992720911601EB
S11325B08FBF243009F43FC0283009F43FC02230D3
S11325C009F056C0C0916201D09163018AA5992790
S11325D0182F882309F41FE1C09880918D02811778
S11325E049F0612F77276F717070606E706885E1B4
S11325F00E94160B10938D02F8808FB7F894082F61
S1132600112760E080E00E942203882309F059C06A
S11326100FBF8EE390E090937D0180937C018EE365
S11326200E943903FA944F2D552760E070E0CE01E3
S11326300E94B9032EC30E94380D2BC3C09889E0B1
S11326400E94880BC09A83E00E948D0C8FB7F89487
S1132650992721E030E030931701209316018FBFB2
S11326608FB7F8949927109310018FBF82E015CF8C
S113267083E00E948D0C0DC30E94D50B0AC30FB7D3
S1132680F89411274091FD015091FE01609146019B
S11326907091470180916D0190916E0110924701F4
S11326A01092460110926E0110926D011092FE017B
S11326B01092FD011092500110924F0120E00E94EF
S11326C0550F0FBFE6C22FB7F894332780918E01C0
S11326D08093050182E0809315012FBF809105014D
S11326E0882309F0D6C2B89AC09886E0D6CEA091C5
S11326F02D01B0912E011C91FD01E10FF11D80818E
S1132700881F8827881FED018BA780818F7789A771
S11327103197808188A7E0912D01F0912E018FB728
S1132720F8949927209153018FBF2223F9F08781D0
S113273046812FB7F894332760919A0270919B02D7
S11327402FBF9927982F88275527842B952B8617D9
S1132750970761F0878126819927982F8827332747
S1132760822B932B8F5F9F4F09F0F4C01D3008F428
S1132770F1C0C0912D01D0912E018A858F3309F0CB
S1132780E5C0898528859927582F44273327422B6C
S1132790532B6B818FEF8093B1028FB7F894782F0E
S11327A020E030E0EDE3F2E0808191818417950729
S11327B031F48281861709F4B9C02093B1022F5FE6
S11327C03F4F33962430310579F77FBF9091B102A2
S11327D03FB7F8949F3F21F080911901891799F42C
S11327E020911901822F9927FC01EE0FFF1FE80F9A
S11327F0F91FE35CFD4F5183408362832F5F237095
S1132800209319010CC0892F9927FC01EE0FFF1F9B
S1132810E80FF91FE35CFD4F518340836283832FEC
S113282099278FBF8BA5882309F490C08F814E818F
S11328302FB7F894332760910601709107012FBFD9
S11328409927982F88275527842B952B8617970728
S113285061F08F812E819927982F88273327822B27
S1132860932B8F5F9F4F09F071C08B858A3009F0DD
S11328706DC088A5992787FD90958D9690939802B1
S1132880809397028431910518F4DA98D99A0FC08D
S11328908F31910518F4DA9AD99A05C0803F9105D1
S11328A020F0DA98D998D89803C0DA9AD998D89AA7
S11328B0809197029091980290935C0280935B02BE
S11328C08FEF80935502809354028AE080935A02DA
S11328D082E08093580280911F0190912001892BFE
S11328E009F034C02FB7F894332785E08093220190
S11328F0109223018FE492E090931E0180931D01B6
S113290082E090E09093200180931F0110922501B2
S1132910109224018EE0809321012FBF9FB7F89479
S113292080918501882321F020E008C07FBF0EC07C
S113293081E0809385011092860121E0892F9927F7
S11329408FBF222309F4A0C10E941102D0932E014B
S1132950C0932D018FB7F894992710924C018FBF23
S11329600E94DB0C96C180913901882361F5209186
S11329704B0230914C0240914D0250914E02EFB700
S1132980F894FF27609187017091880180918901F3
S113299090918A01E0903402F09035020091360261
S11329A0109137026E0D7F1D801F911FEFBF209382
S11329B04B0230934C0240934D0250934E021092BE
S11329C039010E9408030E9425023AC00E94250290
S11329D07B018C018FB7F89499271092FF018FBF68
S11329E08091380181FF55C180913001909131016E
S11329F0A0913201B0913301A8019701281B390B32
S1132A004A0B5B0BDA01C901209134013091350185
S1132A104091360150913701281B390B4A0B5B0B4F
S1132A202F3F8FEF38078FEF48078FE7580709F4D8
S1132A3030C112161306140615062CF0C801B7018E
S1132A400E944C0226C120934B0230934C024093C7
S1132A504D0250934E0281E080933901C801B701C1
S1132A600E94080316C18FB7F89410926501209153
S1132A70880240E0283009F441E030E0293009F4CC
S1132A8031E0442311F4332351F010928802E09191
S1132A908902FF27EE0FFF1FED57FE4F1082992783
S1132AA08FBF442311F4332319F180917E018F5F8A
S1132AB080937E0180918E028334A1F49FB7F894B1
S1132AC02091900280918F02821741F0822F8F5FB4
S1132AD080939002863010F010929002892F9927EB
S1132AE08FBF0AC0A0E0442309F4A1E071E006C04E
S1132AF0222311F010E069C0A0E070E08FB7F894D1
S1132B00992720911A018FBF222341F08FB7F8949F
S1132B1099272AE0209388028FBF43C08FB7F89487
S1132B20992760918301409185018FBF8FB7F894F5
S1132B30282F332750E090918F02809190029817AC
S1132B4009F451E02FBF552349F5662339F55FB7E2
S1132B50F89482E0809383018FB7F894282F332769
S1132B6040E090918F0280919002981709F441E01F
S1132B702FBF442311F080E006C0E0919002FF27AC
S1132B80E157FD4F828180938401852F99278FBF60
S1132B9083E480938E02109289020BC0415042302C
S1132BA010F010E007C085E480938E0281E08093EA
S1132BB0890211E0772349F08FB7F8949927A093FD
S1132BC023018FBF80E10E948201809188028A30B4
S1132BD019F40E94A9015DC0112309F45AC02FB74A
S1132BE0F8943327109275011092740110927801B1
S1132BF081E0809388022FBF0E940102882309F498
S1132C0048C08FB7F894992729E0209388028FBF92
S1132C100E9411023EC05698579810924901109292
S1132C205A01539A549A579A34C08FE036CC539829
S1132C3054982FC01092200110921F018FB7F8945E
S1132C40992720C08FB7F8949927209128013091B3
S1132C502901409152018FBF8FB7F894E42FFF27C9
S1132C60EE0FFF1FE65FFE4F3183208320911B018F
S1132C70442311F02B7F01C02D7F20931B01109260
S1132C80260199278FBF05C01092200110921F01C1
S1132C905DCEDF91CF911F910F91FF90EF9008953A
S1132CA0809199028F3FB1F0282F3327F901E45620
S1132CB0FD4F8081809399028F3F11F48093B0027D
S1132CC08FEF80832F3F31F0822F0E944B1181E0E0
S1132CD090E0089580E090E0089578941F920F9218
S1132CE00FB60F9211240F931F932F933F934F937B
S1132CF05F936F937F938F939F93AF93BF93EF9360
S1132D00FF9387B78F7E87BF78940FB7F89480912D
S1132D10840290918502A0918602B0918702009767
S1132D20A105B10509F059C08091160190911701D0
S1132D3085309105A1F18630910530F483309105F9
S1132D4049F00497C1F51AC08730910531F108970D
S1132D5091F514C0869B0FC084E090E09093170116
S1132D60809316010E94A10427E030E040E050E087
S1132D700E945E0520C00E947B0A1DC083E00E9461
S1132D80FA099927182F882329F083E00E942A0A38
S1132D90112389F40E94380D0EC080E00AC089E036
S1132DA00E94880B81E00E94790583E00E948D0CCB
S1132DB087E00E94210D80911101909112010197E9
S1132DC071F482E090E09093120180931101DE98F7
S1132DD0DE9A80E00E942A0A02C00E94BE04802F6C
S1132DE099278FBFFF91EF91BF91AF919F918F91E1
S1132DF07F916F915F914F913F912F911F910F910F
S1132E000F900FBE0F901F901895CFEFD0E1DEBF4B
S1132E10CDBFFFB6F89442E150E06FEF70E08CE96B
S1132E2092E00E945A1A8FEF809399028093B00225
S1132E3081E08EBD88E080BF83E083BF8CB59DB503
S1132E404AE72CB53DB52817390708F44150442307
S1132E5011F0C901F6CF92B782B78917E9F32CB5FF
S1132E603DB592B782B78917E9F38CB59DB5821B3E
S1132E70930B4096F5E096958795FA95E1F7909334
S1132E8082018093810113BE83B78EBD8EB580BF4E
S1132E9012BE1DBC1CBC8FEF86BF86B780937C001E
S1132EA080B7992787709070892BD1F715BA8FEF67
S1132EB084BBD498DC981092890010928800809189
S1132EC07D00846080937D0080918A00887F826089
S1132ED080938A001DBC1CBC87B7846087BF8EB5F5
S1132EE0887F84608EBDD29AD19AD09ADA9AD99A80
S1132EF0D89A80E285BF0E9450168823E1F712E039
S1132F0006E0609181017091820188279927ECE0A5
S1132F10660F771F881F991FEA95D1F720E031EEDD
S1132F2040E050E00E94941A2150304029B9832F88
S1132F309927809390001BB9009395001AB82093A9
S1132F4099008093980010939B0000939D00109229
S1132F509A0084E490E09093770180937601109234
S1132F6083011092850110928802109278011092C8
S1132F708E0210927E0110927501109274011092CB
S1132F80650110928902109242011092410110923F
S1132F908B011092380210923C0210927901109227
S1132FA03D0110923C011092900210928F02EDE3C9
S1132FB0F2E08FEF9FEF918380831282339622E0B9
S1132FC0E934F207C1F70E94210460932F01809134
S1132FD00001909101010196AA27BB278093560115
S1132FE090935701A0935801B093590180B788601A
S1132FF080BF8BE083BF86EE81BF87B7826087BFC7
S11330000E94870280E092E090932E0180932D012C
S11330108E98B89A8C988FEF8093B30210926601C1
S1133020109267011092680110926901B89AD69AB9
S1133030D59A8FB7F894992720910601309107010A
S11330408FBF30939B0220939A02809108019927A5
S113305090937301809372018FE180936B018AE1F5
S11330608093830281E08093530110928C028093B9
S11330705B01109264010E9450168823E1F78F2DA2
S113308099278FBF789461E081E00E94DA03882356
S1133090E9F48FB7F894282F332780911101909188
S11330A01201892B11F02FBF1BC081E090E0909397
S11330B01201809311012FBFDD9A0E94A10424E123
S11330C030E040E050E00E945E050AC062E081E02A
S11330D00E942203882321F461E081E00E942203FC
S11330E08FB7F894482F552749C087B7992783701D
S11330F09070892B19F4E5E0F0E013C080B79927AC
S113310087709070892BD1F781B792B7891B8C3067
S113311030F082B7853F18F4E3E0F0E002C0E2E06B
S1133120F0E087B7887BC1F480917D008B7FA1F4A8
S11331306E9912C08AB190919A00892B807C61F4B7
S11331408091740082FD08C0379B03C081E090E049
S113315005C085E090E002C080E090E025B78E17BE
S113316008F4E82FFF27E055FD4FC895E02D237E96
S11331702062E22BE5BF78948895F89480919902B7
S11331808F3F09F4B2CF282F3327F901E456FD4FBE
S11331908081809399028F3F11F48093B0028FEF66
S11331A080832F3F09F4A1CF4FBF822F0E944B1180
S11331B097CFACE2B0E0EFEDF8E10C94D51A222EF3
S11331C0332E442E552E662E772E882E992EFE01F0
S11331D03196A8E01192AA95E9F729823A824B82A6
S11331E05C826D827E828F829886FE013996B8E079
S11331F01192BA95E9F7A986BA86CB86DC86ED8664
S1133200FE860F87188B89819A81AB81BC8189A73F
S11332109AA7ABA7BCA77C018D018FEF9FEFA0E01D
S1133220B0E0E822F9220A231B2389A59AA5ABA5BD
S1133230BCA51D014424552489859A85AB85BC858C
S11332408DA39EA3AFA3B8A75C016D018FEF9FEF81
S1133250A0E0B0E0A822B922CA22DB228DA19EA15F
S1133260AFA1B8A53D0188249924C801B701A601DE
S113327095010E94B61A69A37AA38BA39CA3C801E3
S1133280B701A40193010E94B61A7B018C01C2010B
S1133290B101A60195010E94B61A5B016C01C2013D
S11332A0B101A40193010E94B61A3B014C01EA0C3E
S11332B0FB1C0C1D1D1D89A19AA1ABA1BCA19D01E4
S11332C0442755272E0D3F1D401F511F2A153B052E
S11332D04C055D0540F480E090E0A1E0B0E0680EAC
S11332E0791E8A1E9B1ECA01AA27BB27860D971D1D
S11332F0A81DB91D8D8F9E8FAF8FB8A3A901332749
S1133300222789A19AA1ABA1BCA1A070B070280FFB
S1133310391F4A1F5B1F298F3A8F4B8F5C8FA98CF3
S1133320BA8CCB8CDC8CED8CFE8C0F8D18A1FE013D
S1133330719698E011929A95E9F7ED8AFE8A0F8BBF
S1133340188F2D813E814F8158856DA17EA18FA15B
S113335098A50E94B61A3B014C012D853E854F85E8
S1133360588969A57AA58BA59CA50E94B61A2D89B2
S11333703E894F89588D260F371F481F591F260D28
S1133380371D481D591D2D8B3E8B4F8B588F6D88D3
S11333907E888F88988C2A2D3B2D4C2D5D2D662D93
S11333A0772D882D992DE2E1AC960C94F11AA0E1C9
S11333B0B0E0EDEDF9E10C94D51A222E332E442E13
S11333C0552E662E772E882E992E002309F466C07A
S11333D088E0FE01319611928A95E9F729833A83B0
S11333E04B835C836D837E838F829887E0E2E01B4E
S11333F01E16CCF52D813E814F815885602F77278D
S113340067FD7095DA01C901062E04C0B695A7952B
S1133410979587950A94D2F78D879E87AF87B88B47
S113342004C0220F331F441F551FEA95D2F7898128
S11334309A81AB81BC8104C0B695A7959795879571
S11334406A95D2F7282B392B4A2B5B2B29873A878D
S11334504B875C8729843A844B845C846D847E84A6
S11334608F8498881BC01D861E861F86188A2E2F5F
S1133470332727FD3095309521953F4F8D819E81CF
S1133480AF81B88504C0B695A795979587952A9579
S1133490D2F789879A87AB87BC87DCCF222D332D5F
S11334A0442D552D662D772D882D992DE2E16096BA
S11334B00C94F11ADC0101C06D9341505040E0F7C7
S11334C00895991B79E004C0991F961708F0961B7C
S11334D0881F7A95C9F780950895AA1BBB1B51E1F3
S11334E007C0AA1FBB1FA617B70710F0A61BB70B70
S11334F0881F991F5A95A9F780959095BC01CD0115
S1133500089597FB092E07260AD077FD04D0E5DF3E
S113351006D000201AF4709561957F4F0895F6F750
S1133520909581959F4F0895A1E21A2EAA1BBB1B6B
S1133530FD010DC0AA1FBB1FEE1FFF1FA217B3077B
S1133540E407F50720F0A21BB30BE40BF50B661F91
S1133550771F881F991F1A9469F760957095809555
S113356090959B01AC01BD01CF010895629FD001EC
S1133570739FF001829FE00DF11D649FE00DF11D2A
S1133580929FF00D839FF00D749FF00D659FF00DD9
S11335909927729FB00DE11DF91F639FB00DE11DC6
S11335A0F91FBD01CF01112408952F923F924F922C
S11335B05F926F927F928F929F92AF92BF92CF92BF
S11335C0DF92EF92FF920F931F93CF93DF93CDB7C8
S11335D0DEB7CA1BDB0B0FB6F894DEBF0FBECDBF40
S11335E009942A88398848885F846E847D848C8411
S11335F09B84AA84B984C884DF80EE80FD800C811A
S11336001B81AA81B981CE0FD11D0FB6F894DEBFFC
S10D36100FBECDBFED010895FFCFFA
S113361A0100FFFFFFFF010022FF9101C501910193
S9030000FC
